:020000040800F2
:1000000038040020650F0008591000085B10000834
:10001000FD100008FF10000801110008000000009A
:1000200000000000000000000000000003110008B4
:100030000511000800000000071100080911000860
:100040007F0F00087F0F00087F0F00087F0F000858
:100050007F0F00087F0F00087F0F00087F0F000848
:100060007F0F00087F0F00087F0F00087F0F000838
:100070007F0F00087F0F00087F0F00087F0F000828
:100080007F0F00087F0F00087F0F00087F0F000818
:100090007F0F00087F0F00087F0F00087F0F000808
:1000A0007F0F00087F0F00087F0F00087F0F0008F8
:1000B0007F0F00087F0F00087F0F00087F0F0008E8
:1000C0007F0F00087F0F00087F0F00087F0F0008D8
:1000D0007F0F00085D1000087F0F00087F0F0008E9
:1000E000931000087F0F00087F0F0008DFF80CD086
:1000F00001F0C6FB00480047890F000838040020C3
:100100000CB500214B4801910091026842F4803205
:1001100002604FF4A063026802F400320092019A78
:10012000521C0192009A12B9019A9A42F3D10268C4
:10013000920333D5012100913F490A6842F0100231
:100140000A600A6822F003020A600A6842F00202AA
:100150000A604168416041684160416841F48061E2
:100160004160416821F47C114160416841F4E8112B
:100170004160016841F08071016001688901FCD52E
:10018000416821F003014160416841F00201416092
:100190004168C1F381010229FAD10CBD00910CBD67
:1001A000244810B5016841F0010101604168234A0B
:1001B000114041600168224A11400160016821F448
:1001C00080210160416821F4FE0141604FF41F016C
:1001D0008160FFF795FF1B494FF00060086010BD7C
:1001E000144910B54868184A10F00C03174803D09A
:1001F000042B01D0082B0AD002604968134AC1F3CE
:100200000311121D515C0268CA40026010BD4A68A9
:100210004B6802F470124FF0020413F4803F04EBB9
:10022000924202D04B689B0301D5094B00E0064B7C
:100230005A43E1E700100240002002400000FFF8AE
:10024000FFFFF6FE08ED00E000127A00000000203B
:1002500000093D002849084328490860704770B5E7
:100260000F23C47801780122F4B1244C2468457826
:1002700004F4E064C4F5E064240AC4F10406E34035
:100280008478B5401C402C4301F1E021230181F822
:100290000034007800F01F018A404009800000F11E
:1002A000E020C0F8002170BD01F01F008240480925
:1002B000800000F1E020C0F8802170BD104A11409C
:1002C00001430E48001F016070470C4A121D0029AF
:1002D000116801D0014300E08143116070474FF085
:1002E000E0210428086903D020F004000861704769
:1002F00040F00400FAE700000000FA050CED00E011
:1003000080FFFF1FA448016841F0010101604168BE
:10031000A24A114041600168A14A11400160016890
:1003200021F480210160416821F4FE0141604FF415
:100330001F018160704798490A6822F480320A6080
:100340000A6822F480220A60B0F5803F07D0B0F539
:10035000802F03D1086840F4A02008607047086827
:1003600040F48030F9E70246002053098A49012B06
:100370000AD0022B0AD0496A02F01F0201239340DF
:100380000B4200D0012070470968F5E7096AF3E7DE
:1003900018B500204FF4A06400903120FFF7E3FF70
:1003A0000099491C0091A14201D00028F5D03120CC
:1003B000FFF7D9FF002800D0012018BD76490A6850
:1003C00022F0F80242EAC0000860704775490860F0
:1003D0007047714A5368084323F47C1318435060F4
:1003E00070477049086670476B4A516821F00301F5
:1003F0000143516070476848406800F00C00704746
:10040000654A516821F0F001014351607047624A2A
:10041000516821F4E0610143516070475E494A68C8
:1004200022F4605242EAC000486070475A4A0029EC
:10043000517A01D0014300E081435172704759491C
:10044000C1F8D8007047544A516821F44041014333
:10045000516070475049002281F8202081F8202007
:10046000012802D0042802D1052081F8200070471D
:100470004D490860704748490A6A02430A6270475A
:10048000494944390860704730B543494A6812F019
:100490000C03464A03D0042B01D0082B21D0026064
:1004A0004A680F23424C03EA1212A35C0268DA4046
:1004B00042604B68072505EA1323E35C22FA03F345
:1004C00083604B6805EAD323E35CDA40C260496885
:1004D000032303EA9131231F595CB2FBF1F101615F
:1004E00030BD4A684B6802F470124FF0020413F4F6
:1004F000803F04EB924202D04B689B0301D52D4B09
:1005000000E02A4B5A43CAE7234A0029516901D027
:10051000014300E08143516170471F4A00299169FE
:1005200001D0014300E08143916170471A4A0029DC
:10053000D16901D0014300E08143D1617047164A7F
:100540000029D16801D0014300E08143D1607047A8
:10055000114A0029116901D0014300E08143116172
:10056000704711494039086070470E49C8647047A8
:100570000949C87170470848416A41F08071416279
:100580007047054A0146002092680A4200D00120C7
:100590007047014988727047001002400000FFF860
:1005A000FFFFF6FE000042428004424200127A0041
:1005B0001800002000093D00914910B5884206D17D
:1005C00001210420FFF7BBFF002104203BE08D49FF
:1005D000884206D101210820FFF7B1FF0021082041
:1005E00031E08949884206D101211020FFF7A7FF99
:1005F0000021102027E08549884206D101212020D2
:10060000FFF79DFF002120201DE08149884206D18F
:1006100001214020FFF793FF0021402013E07D4996
:10062000884206D101218020FFF789FF0021802028
:1006300009E0794988420AD1841501212046FFF753
:100640007EFF00212046BDE81040FFF778BF10BDB7
:1006500010B501210846FFF772FF0021BDE81040E8
:100660000120FFF76CBFF0B5CA78002502F00F0338
:10067000D20601D58A7813430A784FF00F0E12F094
:10068000FF0F4FF001021DD0D0F800400F8802FA92
:1006900005F63740B74211D14FEA850C0EFA0CF738
:1006A00024EA070703FA0CF43C43CF78282F02D042
:1006B000482F02D002E0466100E006616D1C082D63
:1006C000E4D304600C88FF2C1ED944685FF0000658
:1006D00006F1080702FA07F50F882F40AF420FD145
:1006E0004FEA860C0EFA0CF7BC4303FA0CF73C43B6
:1006F000CF78282F00D14561CF78482F00D10561F0
:10070000761C082EE4D34460F0BD4FF6FF710180E3
:10071000022181700421C170704702460020926856
:100720000A4200D001207047806880B270470246BC
:100730000020D2680A4200D001207047C06880B211
:10074000704701617047416170470AB101617047AC
:1007500041617047C160704741F4803282618161BC
:1007600082618169806970472C4B10B51A684FF619
:100770008074224042EA00100843186010BD2849E6
:10078000C8617047F0B5254C002801DAE36900E044
:100790006368420D120185B2C0F301579540C0F362
:1007A0000346032F05D0C2020AD50322B240934369
:1007B00007E023F07062636823F07063636002E017
:1007C000AB4343F0706201B12A43002801DAE261D1
:1007D000F0BD6260F0BD10B58A0721F003040F4937
:1007E000130F21440F228C689A4094438C608A68CE
:1007F000984002438A6010BD0949C1F8DC00704787
:1008000000080140000C01400010014000140140AC
:1008100000180140001C0140002001400000014080
:1008200000002042C54910B5884202D1012144157B
:100830000AE0C349884202D10121041504E0C149FC
:1008400088420AD10121CC032046FFF778FE2046DA
:10085000BDE810400021FFF772BE10BD10B5426820
:10086000B94B0C791A400B6842EA042213434360E7
:100870008368B64A1340D1E9024222434C7943EAE5
:1008800044031A438260C26A097C22F47002491E42
:10089000C9B242EA0151C16210BD0021016001717B
:1008A00041718160C1600121017470470029816834
:1008B00002D041F0010101E021F0010181607047A7
:1008C0000029816802D041F4807101E021F4807137
:1008D00081607047002A4268C9B201D00A4300E033
:1008E0008A4342607047816841F008018160704727
:1008F000014600208968090700D5012070478168FA
:1009000041F0040181607047014600208968490771
:1009100000D5012070470029816802D041F4A00170
:1009200001E021F4A0018160704701460020896840
:10093000490200D5012070474268491E22F46042F6
:1009400042EA4131416070470029416802D041F4D8
:10095000006101E021F400614160704770B5072437
:1009600009290AD9C568A1F10A0606EB4606B44072
:10097000A543B3401D43C56007E0056901EB41068F
:10098000B440A543B3401D4305611F23072A09D284
:10099000446B521E02EB820293409C4391400C43F5
:1009A000446370BD0D2A09D2046BD21F02EB820290
:1009B00093409C4391400C43046370BDC46A0D3A5C
:1009C00002EB820293409C4391400C43C46270BD91
:1009D0000029816802D041F4801101E021F48011E6
:1009E00081607047C06C80B2704754484C300068DA
:1009F00070470029416802D041F4806101E021F490
:100A00008061416070470029416802D041F4805103
:100A100001E021F4805141607047826822F4E04295
:100A20000A43826070470029816802D041F4004186
:100A300001E021F40041816070470029816802D003
:100A400041F4021101E021F4021181607047014676
:100A500000208968890200D50120704770B50724FD
:100A600009290AD9C568A1F10A0606EB4606B44071
:100A7000A543B3401D43C56007E0056901EB41068E
:100A8000B440A543B3401D430561836BC3F30154D8
:100A9000121B921C02EB82041F22A2409343A1402E
:100AA0000B43836370BD826B491E22F4401242EAFD
:100AB00001518163704708B508440090026008BD89
:100AC00008B5084428300090006880B208BD42682C
:100AD0001F4B1A400A43426070474162826270476E
:100AE000426822F01F020A434260704713490831EE
:100AF0000028086802D040F4000001E020F4000063
:100B0000086070470246002012680A4200D00120A7
:100B10007047C9430160704710B502460020546811
:100B20000B0AC9B20C401168194202D0002C00D047
:100B3000012010BD6FEA11210160704700240140BF
:100B400000280140003C0140FFFEF0FFFDF7F1FFEF
:100B5000FFFD3FFF374900200860091D0860091D9F
:100B60000860091D08603349334814310860704734
:100B700030B530498379026853B30B6893430B60F7
:100B80000A1D13680468A343136002790A441368BA
:100B9000046823431360274A083213680468A34398
:100BA0001360131D1C680568AC431C604479102C4D
:100BB00005D021440A68006802430A6030BD11680C
:100BC000046821431160196800680143196030BD51
:100BD0000079084401689143016030BD0021016043
:100BE00001710C22427181717047124910310A68FB
:100BF00002430A60704701460E4A00201432126810
:100C00000A4200D0012070470A4914310860704739
:100C1000084A014600201268064B0A4014331B683C
:100C20000B4202D0002A00D0012070470149143144
:100C30000860704700040140FFFF0F00C44910B571
:100C400088420AD101218C032046FFF778FC204618
:100C5000BDE810400021FFF772BCBE49884202D1B6
:100C600001214C0410E0BC49884202D101218C04CE
:100C70000AE0BA49884202D10121CC0404E0B84913
:100C800088420AD101210C052046FFF761FC20466D
:100C9000BDE810400021FFF75BBC10BD30B5044635
:100CA000008A85B00D464CF6FF710840E988014383
:100CB0002182A1894EF6F3100140A8882A891043A9
:100CC0006A890A431043A081A08A4FF6FF41084079
:100CD000A9890143A1826846FFF7D6FB9C4884425C
:100CE00001D1039800E00298A189090400EBC0013A
:100CF00001EB0010296801D5490000E08900B0FB34
:100D0000F1F06422B0FBF2F109010B096FF0180554
:100D10006B4300EB8300A3891D044FF0320306D51B
:100D200003EBC000B0FBF2F000F0070005E003EBBE
:100D30000010B0FBF2F000F00F000843208105B076
:100D400030BD4FF41651016000218180C1800181C6
:100D50000C2242818181704710B5038A4FF2FF0255
:100D600013400A884C8822438C88C9880C4322434C
:100D70001A43028210BD0021018041808180C18020
:100D800070470029818902D041F4005101E021F42B
:100D900000518181704710B5C1F3421301F01F0467
:100DA0000121A140012B07D0022B07D01430002ACB
:100DB000026805D00A4304E00C30F8E71030F6E78B
:100DC0008A43026010BD002A828A01D00A4300E0F3
:100DD0008A4382827047028A22F00F020282028ACC
:100DE0000A4302827047828922F4006282818289EA
:100DF0000A43828170470029818902D041F00201B3
:100E000001E021F0020181817047028A22F0200274
:100E10000282028A0A43028270470029018A02D0B4
:100E200041F4804101E021F4804101827047C1F327
:100E30000801818070478088C0F30800704781896D
:100E400041F0010181817047028BD2B20283028B93
:100E500042EA012101837047028B02F47F42028340
:100E6000028B0A43028370470029818A02D041F035
:100E7000200101E021F02001818270470029818A50
:100E800002D041F0100101E021F010018182704791
:100E90000029818A02D041F0080101E021F0080117
:100EA000818270470029818902D041F4004101E02C
:100EB000C1F30E01818170470029818A02D041F47B
:100EC000006101E021F4006181827047828A22F092
:100ED00004028282828A0A43828270470029818AC0
:100EE00002D041F0020101E021F00201818270474D
:100EF0000246002012880A4200D001207047C943F0
:100F00000180704730B501F01F0201240025C1F3B4
:100F1000421304FA02F2012B0FD0022B0FD0838A66
:100F20004FEA11210088134204FA01F400EA040098
:100F300001D000B10125284630BD8389F0E7038A3E
:100F4000EEE70A0A01219140C94301807047000081
:100F5000003801400044004000480040004C004080
:100F6000005000400648804706480047FEE7FEE77D
:100F7000FEE7FEE7FEE7FEE7FEE7FEE7FEE7FEE749
:100F8000A1010008ED00000800F04EF900F0D5F8CE
:100F900000F0C4F800F02DF900F06BF900F055F9FD
:100FA00000F0E0F8164E00252C4601213046FFF7F0
:100FB000B2FC02213046FFF7A5FD0028F9D03046EB
:100FC000FFF710FD641CE4B20544322CEDD332204F
:100FD000B5FBF0F000F05DFA4FF06632094B00F01F
:100FE000CFF96FF00B0200F03DFA02460B4606A067
:100FF00000F08AFC4FF47A7000F01BF8D3E7000091
:101000000024014066660A4061643D25660A0000CE
:1010100000EBC0014FF0E02041610121016100219E
:1010200081610269D30701D0D203FAD501618161E0
:10103000704742F2283148434FF0E02148610120D7
:101040000861002088610A69D30701D0D203FAD56C
:1010500008618861704700007047FEE710B52B4CAF
:1010600040212046FFF74BFF40F225512046FFF775
:1010700049FF00280CD02046FFF7DDFE0146204640
:10108000FFF7D5FE80212046FFF732FF0028F9D078
:1010900010BD2DE9F0410025DFF874801D4E2C466F
:1010A00002214046FFF739FB0128F9D100F050F941
:1010B000FA281AD2A0F1C801322901D201250BE089
:1010C000A0F13C011E2901D2012703E00A3828289B
:1010D00000D20027012D0ED13068202C07EB4000F4
:1010E000306008D30C4801210170BDE8F0414FF495
:1010F0000040FFF79BBD641CE4B2D1E7FEE7FEE7CA
:10110000FEE77047704770477047000000380140A5
:10111000000C0140280000202C00002008B502200F
:10112000ADF8000000208DF8030003208DF80200C8
:1011300069462648FFF797FA08BD10B5FFF730F863
:1011400001211020FFF7E9F901210846FFF7E5F931
:1011500001214802FFF7E1F9BDE810404FF40040DB
:10116000FFF771B910B586B0002201204FF460215D
:10117000CDE902128DF80400154C8DF805008DF8AC
:101180001000009269462046FFF768FB0723012202
:1011900009212046FFF7E2FB01212046FFF786FBED
:1011A0002046FFF7A0FB2046FFF7A2FB0028FAD15C
:1011B0002046FFF7A4FB2046FFF7A6FB0028FAD144
:1011C00001212046FFF7A7FB06B010BD000C01402F
:1011D0000024014070B5394D0446C1B22846FFF7DE
:1011E00026FE80212846FFF783FE0028F9D02046FE
:1011F00070BD38B54FF40070ADF8000003208DF8D5
:10120000020018202E4C8DF8030069462046FFF797
:101210002AFA2015ADF8000004208DF80300694675
:101220002046FFF720FA38BD10B5FEF7B9FF0121BF
:101230000420FFF772F901218803FFF76EF90121FD
:10124000BDE810400846FFF768B908B54FF4C06024
:10125000FFF700F825208DF8000000208DF8010030
:1012600001208DF802008DF803006846FEF7F7FFB5
:1012700008BD1FB54FF4E13000900020ADF8040028
:10128000ADF80600ADF80800ADF80C000C200B4CD2
:10129000ADF80A0069462046FFF700FD012120460F
:1012A000FFF76FFD012240F225512046FFF773FD45
:1012B00040212046FFF723FE1FBD000000380140FB
:1012C000000801401CB54FF400442046FFF7AEFC77
:1012D0000F210620FFF77FFA00208DF804000C2074
:1012E0008DF8050001208DF8060000946846FFF790
:1012F0003FFC1CBD08B54FF4C060FEF7ABFF2820D3
:101300008DF8000000208DF8010001208DF802000A
:101310008DF803006846FEF7A2FF08BD08B54FF43C
:101320000040ADF8000048208DF8030069461348DE
:10133000FFF799F908BD10B5FEF732FF0121080249
:10134000FFF7EBF80121BDE810400846FFF7E5B8CC
:1013500070B500244FF40045084E06E0641CE4B26A
:101360001420FFF755FEFA2C05D229463046FFF728
:10137000D4F90128F2D0204670BD000000200140C1
:101380002DE9FE4F81EA030404F0004421F00041FE
:1013900000944FF0000B23F0004350EA01045ED0AC
:1013A00052EA03045BD0C3F30A54C1F30A552C4438
:1013B000A4F2F3340194A0FB0254C1F3130141F4ED
:1013C0008011C3F3130343F4801301FB024400FBB9
:1013D000034E840A970A44EA815447EA8357A4FBE0
:1013E000076802958D0A05FB07854FEA932C04FBDD
:1013F0000C542705029D4FEA065847EA1637B5EB0D
:1014000008056EEB070C870E920E47EA811742EA39
:101410008312A7FB0201B6EB0B0164EB00042B0D5A
:1014200043EA0C335E1844EB1C50DA465146E7FBA6
:101430000201C5F313044FEA0B3343EA14534FEA96
:101440000432019C43EA0603A4F10C040294009CBC
:10145000CDE900B400F080F803B0BDE8F08F0020C3
:101460000146F9E770B521F0004303430CD0C1F306
:101470000A550024D5EB040564EB0403D617AD1A16
:10148000B34102DB0020014670BD201841EB025140
:1014900070BD0EB540F2334102910021CDE900113B
:1014A0000A460B4600F058F803B000BD30B50B46B5
:1014B000014600202022012409E021FA02F59D4284
:1014C00005D303FA02F5491B04FA02F52844151E58
:1014D000A2F10102F1DC30BD2DE9F05F05460020EC
:1014E00092469B4688460646814640241BE0284695
:1014F00041464746224600F0E4F953465A46C01A90
:10150000914110D311461846224600F0CBF92D1A0E
:1015100067EB01084F4622460120002100F0C2F986
:1015200017EB00094E41201EA4F10104DFDC484600
:1015300031462A464346BDE8F09F10B5141E73F1AC
:10154000000408DA401C41F1000192185B411A4383
:1015500001D120F0010010BD2DE9F04D92469B46CF
:1015600011B1B1FA81F202E0B0FA80F22032904675
:1015700000F098F904460F4640EA0A0041EA0B01E0
:1015800053465A46084313D0114653EA010019D076
:10159000C8F14002504600F094F905460E46504608
:1015A0005946424600F07EF9084305D0012004E088
:1015B00020463946BDE8F08D0020054346EAE07636
:1015C0002C4337430A986305E40AA0EB0800002285
:1015D000FD0A44EA47540A3002D500200146E9E7F3
:1015E000010510196941DDE9084500196941BDE8A7
:1015F000F04DA2E72DE9FE4F804681EA0300C00FBF
:101600000C46009021F0004123F00045B8EB0200A9
:10161000A94105D24046214690461C460B4602464B
:1016200023F00040104347D0270DC7F30A00C3F34F
:101630000A510290401A019040286BDAC3F313005C
:1016400040F4801B0098924620B10023D2EB030A9D
:1016500063EB0B0B01985946C0F14002504600F075
:1016600021F906460D4650465946019A00F039F9CF
:1016700010EB08006141002487EA115284EAE77305
:101680001A4340D0009A62B3019A012A4FEA0752E6
:1016900015DC001B61EB02014FF0004202EA075229
:1016A000CDE90042001C41F5801132462B46FFF780
:1016B00053FF03B0BDE8F08F40462146F9E7001B19
:1016C00061EB0201001C41F5801300185B412018FA
:1016D000A2F5001747EB030140EAD570B6196D413A
:1016E00011E06D084FEA360645EAC0754FEA075229
:1016F000001B61EB0201001C41F5801149084FEA13
:1017000030000019514132462B4603B0BDE8F04F7E
:10171000FFF713BF0098012240000023D0EB020224
:1017200063EBE073009821464FEAE074B8EB0000E9
:1017300061EB0401E9E783F000435BE781F00041DE
:1017400058E72DE9F04D81EA030404F0004B21F045
:10175000004514464FF0000A23F0004150EA05020C
:1017600020D054EA01021DD0C5F30A570246C5F342
:101770001303C1F31300C1F30A5640F4801543F478
:101780008013A7EB0608101BD64608F2FD3873EB52
:10179000050002D308F1010801E092185B41B8F19D
:1017A000000F03DA00200146BDE8F08D00204FF461
:1017B0008011064684460EE0171B73EB050705D320
:1017C000121B63EB050306434CEA010C49084FEA80
:1017D000300092185B4150EA0107EDD152EA030054
:1017E00012D082EA040083EA0501084305D0101BE9
:1017F000AB4106D20122002306E000224FF0004355
:1018000002E06FF0010253101AEB06004CEB085196
:1018100010EB0A0041EB0B01BDE8F04DFFF78DBE68
:10182000C1F30A52C1F3130140F2FF3341F48011B6
:101830009A4202DA00200146704740F233439A424E
:10184000A2F2334202DC524200F03BB800F02AB868
:1018500030B5041E71F1000404DB4FF00044404237
:1018600064EB0101141E73F1000405DB1C464FF00C
:101870000043524263EB0403994208BF904230BDDB
:10188000064C074D06E0E06840F0010394E80700CD
:1018900098471034AC42F6D3FEF72CFCDC2100084C
:1018A000FC210008202A04DB203A00FA02F1002083
:1018B00070479140C2F1200320FA03F3194390408E
:1018C0007047202A04DB203A21FA02F000217047F9
:1018D00021FA02F3D040C2F1200291400843194698
:1018E0007047202A06DBCB17203A41FA02F043EA80
:1018F000E07306E041FA02F3D040C2F120029140C9
:1019000008431946704700000FB4054B10B503A9F2
:10191000044A029800F0CAF810BC5DF814FB0000FD
:10192000D51100083000002002E008C8121F08C1CD
:10193000002AFAD170477047002001E001C1121F50
:10194000002AFBD1704700002DE9FF5FDDE902208E
:10195000010DDDF838B0024318D044F61050A1F262
:10196000FF3141430D140F98012820D0A5EB0B0047
:10197000401C5FEA000A4FF00004474EDFF81C915C
:10198000A046504616D5CAF1000728E00F9801245A
:1019900043A2012808D0002100980F9BC0E9002134
:1019A000C0E90243BDE8FF9F6FEA0B01F4E7CBF10A
:1019B0000000DEE7074612E0F80707D0224633466C
:1019C00040464946FFF7DCFC8046894622463346BE
:1019D00010461946FFF7D4FC04460E467F10002F30
:1019E000EAD1DDE90201BAF1000F42464B4602DAC4
:1019F000FFF7C6FC01E0FFF7A4FE04460E460022F6
:101A0000284BFFF725FF03D84FF0FF30014607E0D2
:101A10000022254B20463146FFF7ECFDFFF700FF83
:101A2000102409E0002C0ADB0A220023FFF754FDF2
:101A3000019B30321A55641E50EA0102F2D1641C37
:101A4000019AC4F1110314440F9A012A03D0012210
:101A500008430DD10AE0084304D000204FF0110BD9
:101A60000F9080E7A3EB0B056D1E0DE05B4504DDD9
:101A70004FF0000205F1010504E003DA4FF0000227
:101A8000A5F10105002AECD000980F99C0E90231B8
:101A9000C0E9004586E70000000024400000F03F58
:101AA000300000000000F0430000E03F2DE9FF4F50
:101AB00095B09B468946064600250FE2252877D13A
:101AC00000242746F84A0121059400E0044316F853
:101AD000013F203B01FA03F01042F7D130782A2869
:101AE00011D06FF02F033078A0F13002092A16D8F8
:101AF000059A44F0020402EB820203EB4202104416
:101B0000761C0590EFE759F8042B0592002A03DABA
:101B1000504244F40054059044F00204761C30789E
:101B20002E2816D116F8010F44F004042A280DD0EF
:101B30006FF02F023078A0F13003092B09D807EBA2
:101B4000870302EB4303C718761CF3E759F8047BBD
:101B5000761C30786C280FD006DC4C2817D068280B
:101B60000DD06A2814D104E0742810D07A280FD13F
:101B70000DE044F400140AE044F4801401E044F45D
:101B800040147278824202D104F58014761C761CCF
:101B9000307866280BD013DC582877D009DC002871
:101BA00075D04528F6D04628F4D047281AD19DE1B3
:101BB00018E0632835D0642879D0652812D195E1E2
:101BC000702873D008DC6728F1D069286FD06E28A0
:101BD0000DD06F2806D1B5E073282CD0752875D0AC
:101BE000782874D05A46179990476D1C75E1C4F354
:101BF0000250022809D003280DD0D9F8001004287B
:101C00000DD00D6009F1040967E1D9F80010EA1759
:101C1000C1E90052F6E7D9F800100D80F2E70D7027
:101C2000F0E719F8041B8DF8001000208DF8010072
:101C3000EA46012003E059F804AB4FF0FF3061079A
:101C40004FF0000102D40DE008F101018846B942CD
:101C50000FDA8045F8DB1AF808100029F4D108E003
:101C600008F1010188468142FADB1AF808100029C0
:101C7000F6D105985B46A0EB080721463846179A2F
:101C800000F094FA284400EB080507E04DE029E154
:101C90000DE01AF8010B5A4617999047B8F1010860
:101CA000F7D25B4621463846179A13E142E00A22F2
:101CB0000092C4F302524FF0000A022A08D059F8E9
:101CC00004CB032A4FEAEC710AD00DE029E02AE0A8
:101CD00009F1070121F00702F2E802C1914609E08B
:101CE0000FFA8CFC4FEAEC71042A03D14FFA8CFCFA
:101CF0004FEAEC71002907DA0A460021DCF1000CFA
:101D000061EB02012D2202E0220504D52B228DF881
:101D10000420012203E0E20701D02022F7E79046E9
:101D200059E00A2102E010220DE010214FF0000AD4
:101D300000910BE010224FF0000A44F00404082741
:101D4000009203E008224FF0000A0092C4F302520E
:101D5000022A05D059F804CB0021032A08D009E053
:101D600009F1070121F00702F2E802C1914605E0FE
:101D70001FFA8CFC042A01D10CF0FF0C4FF0000874
:101D8000220728D5702806D0009B83F0100353EA61
:101D90000A0305D00EE040228DF80420012208E05D
:101DA0005CEA010206D030228DF804208DF805008F
:101DB00002229046009B83F0080353EA0A030AD1EB
:101DC0005CEA010201D1620705D530228DF80420BA
:101DD0004FF001087F1E582804D034A003900EA8AD
:101DE00002900DE036A0F9E753466046009AFFF7EF
:101DF00073FB84460398825C0298401E0290027036
:101E00005CEA0100F0D1029806A9081A00F1200A44
:101E1000600702D524F4803400E00127574502DD35
:101E2000A7EB0A0000E0002000EB0A0100900598F3
:101E30004144401A0590E00306D45B462146179AB8
:101E4000059800F0B3F90544002706E001A85A46BA
:101E5000C05D179990476D1C7F1C4745F6DBE0037A
:101E60000CD55B462146179A059800F09FF905446A
:101E700004E030205A46179990476D1C0099481E7F
:101E800000900029F5DC08E0029802995A46007893
:101E9000491C0291179990476D1CBAF10001AAF1F3
:101EA000010AF1DC65E1000009280100303132331C
:101EB0003435363738396162636465660000000086
:101EC0003031323334353637383941424344454670
:101ED0000000000000F058F90544761C3078002816
:101EE0007FF4ECAD19B02846BDE8F08F620700D44E
:101EF000062709F1070222F0070CFCE80223E1465D
:101F000003F000485FEA080C02D00FF2702C0DE0DD
:101F10005FEA045C02D50FF2682C07E05FEAC47C3C
:101F200002D00FF2602C01E0AFF2700C4FF0FF38DE
:101F300023F00043CDF850C065280CD006DC4528BE
:101F400009D046281DD047283DD13DE0662818D04D
:101F500067287ED138E00021112F01DB112000E03D
:101F6000781CCDE9000106A90EA8FFF7EDFCDDE91C
:101F70000F010E9A03910021009207F1010A0491CA
:101F80004DE04FF000400097CDE9011006A90EA8E2
:101F9000FFF7DAFCDDE90F0203920E9B1199002294
:101FA000DDF80CA00093049211B9791C00EB010A32
:101FB000B7EB0A0004D4C0F1FF3007F1010A049026
:101FC000AAEB0700019044E0012F00DA012700216D
:101FD000112F01DD112000E03846CDE9000106A9EE
:101FE0000EA8FFF7B1FCDDE90F010E9A0391002165
:101FF00004910092BA4621070CD40399514500DAA6
:102000008A46BAF1010F05DD009AAAF10101515C7F
:10201000302908D0B84202DA10F1040F06DA0121A3
:10202000CDE9011015E0AAF10101E9E7002805DC7E
:10203000049901440491AAEB000102E0411C5145BE
:1020400000DD8A460499401A401C01904FF0004080
:102050000290200704D40198504501DBCDF804809C
:1020600000208DF84F0002980DF14F07B0F1004F9E
:1020700025D02B200E9002984FF0020800280CDA91
:10208000404202902D200E9007E00A210298FFF7AF
:102090000DFA3031029007F8011DB8F10001A8F1E6
:1020A0000108F2DC02980028EFD1791E0E98087022
:1020B000307800F0200040F0450007F8020D12A82B
:1020C000C01B00F107081498007800B1012000EB54
:1020D0000A01019801EBE07105984144401A401E45
:1020E0000590E00306D45B462146179A059800F058
:1020F0005DF805441498007818B15A46179990472E
:102100006D1CE00324D55B462146179A059800F024
:102110004DF805441CE00498002807DBDDE90301C5
:10212000884203DD0098405C179901E01799302040
:102130005A469047049805F10105401C0490019807
:10214000401E019004D12E205A46179990476D1CCD
:10215000BAF10001AAF1010ADDDC05E017F8010B74
:102160005A46179990476D1CB8F10001A8F1010873
:10217000F4DC5B462146179A0598ABE62D0000007B
:102180002B000000200000002DE9F041044600254E
:102190001E461746880404D405E039462020B0477F
:1021A0006D1C641EF9D52846BDE8F0812DE9F0418B
:1021B000044600251E469046C80301D5302700E09E
:1021C0002027880404D505E041463846B0476D1CF9
:1021D000641EF9D52846BDE8F0810000FC21000806
:1021E00000000020340000002819000830220008F8
:1021F00034000020040400003819000800A24A043A
:1022000000000000000000000102030406070809A6
:102210000204060800000000010203040102030496
:102220000607080900000000000000000000000090
:04000005080000ED02
:00000001FF
