:020000040800F2
:10000000D0070020A90100081710000813100008ED
:1000100015100008390E0008191300080000000030
:100020000000000000000000000000004111000876
:100030006F0F00080000000019100008ED11000803
:10004000C3010008C3010008C3010008C301000880
:10005000C3010008C3010008C3010008C301000870
:10006000C3010008C3010008C3010008C301000860
:10007000C3010008C3010008C3010008C301000850
:10008000C3010008C3010008C3010008C301000840
:10009000C3010008C3010008C3010008C301000830
:1000A000C3010008C3010008C3010008C301000820
:1000B000C3010008C3010008C3010008C301000810
:1000C000C3010008C3010008C3010008C301000800
:1000D000C3010008C3010008C3010008C3010008F0
:1000E000C3010008C3010008C301000800F002F8C2
:1000F00000F04AF80AA090E8000C82448344AAF178
:100100000107DA4501D100F03FF8AFF2090EBAE875
:100110000F0013F0010F18BFFB1A43F0010318473B
:10012000E013000000140000103A24BF78C878C122
:10013000FAD8520724BF30C830C144BF04680C60ED
:10014000704700000023002400250026103A28BF35
:1001500078C1FBD8520728BF30C148BF0B60704739
:10016000642900F08180782900F0BA80002070476F
:100170001FB59DE8030000F09DFB00F067F91FBD6F
:1001800010B500F0CCF910BD00F02FFA1146FFF7C2
:10019000EFFF01F0D5F800F033FB03B4FFF7F0FFF9
:1001A00003BC00F019FD00000948804709480047DA
:1001B000FEE7FEE7FEE7FEE7FEE7FEE7FEE7FEE717
:1001C000FEE7FEE704480549054A064B7047000074
:1001D000F1110008ED000008D0010020D007002038
:1001E000D0030020D00300200FB4044910B503AAA7
:1001F000029800F0FDF810BC5DF814FBC800002068
:100200002DE9F0410E460446002020622046E168B8
:10021000884730B3252805D0D4E901219047206ACA
:10022000401CF2E7E168204600278847050018D007
:10023000A5F14100192802D820354FF40067324655
:10024000294620462760FFF78BFF40B1012804D0E4
:10025000F61D26F007060836D8E7361DD6E72846ED
:10026000DAE7206ABDE8F0812DE9F0410646002476
:1002700010687529314616A510D0AFF3008000280C
:1002800002DA404213A507E031688A0701D512A5BA
:1002900002E0490704D511A5012401E0AFF3008075
:1002A00000210A2206F1240709E0B0FBF2FCB0FBB2
:1002B000F2F302FB1C00303078541846491C002829
:1002C000F3D123462A463046BDE8F04100F037B866
:1002D000000000002D0000002B00000020000000A6
:1002E00070B504460D4621461068AFF300802188A2
:1002F000090502D50F4A7A4402E00E4A7A440E32CA
:10030000002104F1240305E000F00F060009965DCA
:100310005E54491C0028F7D120780023000704D53B
:10032000702D02D009B1022311322046BDE8704081
:1003300000F005B87E1100007047704770472DE946
:10034000F0470D4699469246044600F1240801689C
:10035000880604D5E06921F01001216000E0012049
:10036000A84201DD471B00E00027A1697A1902EBD2
:100370000900081AA0612078C00602D42046AFF315
:100380000080002608E0D4E901211AF80600904711
:10039000206A401C761C20624E45F4DB2078C006A3
:1003A0000AD52046AFF3008006E0D4E901213020D1
:1003B0009047206A401C2062381EA7F10107F4DC38
:1003C00007E0D4E9012118F805009047206A401C95
:1003D0002062281EA5F10105F3DC2046AFF3008062
:1003E0002078000602D50220BDE8F0870120FBE757
:1003F000074B70B50D467B4400F011F804462846C3
:1004000000F020F810B14FF0FF3070BD204670BDF5
:10041000230F000001694A1C02610878704700B58B
:100420008FB0CDE901310021059105497944CDE92D
:10043000031011466846FFF7E3FE0FB000BD000051
:10044000E5FFFFFF007B00F08000704710B54248D9
:10045000542100F0E5F94148542100F0E1F9404809
:10046000542100F0DDF93F493B483C4A3F4B0860CE
:100470003D490A603A491960531C0365481C1065E0
:10048000012008653B48344A39A1784400F01CF942
:1004900020B9384878440A3800F0BBF937482F4A69
:1004A00035A1784400F010F920B9344878440A386E
:1004B00000F0AFF932482A4A2FA1784400F004F93D
:1004C00020B92F4878440A3800F0A3F94023224885
:1004D000DC000021224600F0D4F820B12548784401
:1004E000543800F096F91D4822464023002100F0C0
:1004F000C8F820B121487844543800F08AF91848E7
:1005000022461023002100F0BCF8002806D01C4829
:100510007844BDE81040563800F07BB910BD104853
:1005200070B5006D20F001040B4800F043F90B4852
:1005300000F040F90A4800F03DF909E0206D20F094
:100540000105204600F036F9204600F073F82C46ED
:10055000002CF3D170BD000074000020C800002002
:100560001C010020180000201C000020200000209A
:10057000720000001210000077000000FE0F000063
:10058000EA0F00000EB5CDE9000100F005FB029076
:1005900069460120ABBE0EBD08B569460090022039
:1005A000ABBE08BD1FB58DE8070069460520ABBE90
:1005B00004B010BD1FB58DE80F0069460620ABBE24
:1005C000F6E708B5694600900920ABBE08BD1CB52A
:1005D000CDE9000169460A20ABBE1CBD704708B5D5
:1005E000694600900C20ABBE08BD754600F040F98E
:1005F000AE4605006946534620F00700854618B010
:1006000020B5FFF7DFFDBDE820404FF000064FF0BA
:1006100000074FF000084FF0000B21F00701AC4637
:10062000ACE8C009ACE8C009ACE8C009ACE8C00956
:100630008D46704770B50446051F00F01FF900682D
:10064000002C14BF446870BD002C18BFAC423CBFE6
:1006500020466468F8D301680A18AA4218BF4560AA
:1006600003D12A6805461144016028684119A14256
:100670001CBF6C6070BD61686960216808442860B7
:1006800070BD70B5C468A50713D0650211D4B2F56A
:10069000807F09D0B2F5007F06D0B2F5806F08D117
:1006A000012300F1240106E05D1E6FF07F46B54294
:1006B00001D3012070BD0161C361416024F4706108
:1006C0001143C160002070BD2DE9F0410C46074682
:1006D0001646104600F06EF82078611C61280AD09A
:1006E000722802D077283CD102E00125002405E0E1
:1006F0000225042402E0082448F2020511F8010B47
:100700002B2806D0622809D011F8010C74280AD0D1
:100710000BE045F0030544F00204EFE745F0040563
:1007200044F00104EAE744F0100438462146FFF79C
:1007300029FF411C15D00021316171604FF4007117
:10074000F560F1617061200704D530460222002176
:1007500000F00EF9306D40F0010030653046BDE824
:10076000F0810020FBE72DE9F0410D460646104CD4
:10077000206DC10704D0410804D020F00104F7E740
:1007800022460EE0542000F0C4F807000ED0206D81
:1007900047F00101084354212065384600F040F835
:1007A0003A4629463046BDE8F0418DE70020D6E7BD
:1007B000740000202DE9F04704464FF000094FF087
:1007C000FF37C568D4E90486A80707D0204600F0A3
:1007D0007FF93046FFF7E0FE002802DA3846BDE830
:1007E000F087280502D54046FFF724FF4C2120461C
:1007F00000F016F8206D20F0010020654846EEE775
:1008000010B50446AFF300802046BDE81040FFF766
:10081000C4BC10B500F0A6F9BDE8104000F09CB9CA
:100820004FF0000200B5134694469646203922BF89
:10083000A0E80C50A0E80C50B1F12001BFF4F7AFD4
:10084000090728BFA0E80C5048BF0CC05DF804EBB6
:10085000890028BF40F8042B08BF704748BF20F824
:10086000022B11F0804F18BF00F8012B70470000D9
:100870000048704770010020704700000048704732
:1008800078010020704770477047704738B50446BC
:100890000A4600206946AFF30080002808BF38BD33
:1008A00002460099204600F0A4F9012038BD01203D
:1008B00000F0F3B9F8B5AFF30080054600200C4610
:1008C000102000BF0646A819A0420DD9324669463D
:1008D0000020AFF30080070008BF00F0DEF90098A9
:1008E000A04218BF0546C419FFF7C8FF05600746B8
:1008F000F01D20F007004619284600F073F9B442B5
:1009000008BFF8BDA21B31463868BDE8F84000F0CA
:1009100070B970B50646FFF7B1FF056806F10B0028
:1009200020F00704B4429CBF002070BD2B466A68CB
:10093000BAB11068A04210D304F1080188423CBF4C
:100940005068586007D35168101941601168091B3D
:10095000016058601460101D70BD13465268002A73
:10096000E7D121462846FFF791FF0028DED170BD70
:100970002DE9F041044616460D464769007B800785
:100980002ED03846FFF71DFE50BB3EB3012E02D0DD
:10099000022E25D104E0204600F045F905441DE073
:1009A0003846FFF71CFEE168002841F01001E160C5
:1009B00005DA204600F058F80120BDE8F081C903AF
:1009C0000BD56268E16A914200D81146A2691144D0
:1009D0002269891A814200DD08460544002D01DAAA
:1009E0000220EAE7E16A6068E268814206D2910388
:1009F000E06203D522F4003141F01002A66900271D
:100A0000AE4213DCE16A814201D90B4600E00346A5
:100A100003EB060C2369ACEB030CAC4506DD81420D
:100A200001D98C4600E084469C4505D1A76027602B
:100A300042F02000A5620DE0AD1BE669AE1B8142CD
:100A4000A66000D90846C01A281A206058196060AC
:100A500022F0200003490840E060002084F848703C
:100A6000ABE70000BFCFD7FFC16821F4001141F010
:100A70008001C16000218160016070472DE9F0476D
:100A8000814614460E464FF0FF383248D568576904
:100A9000054209D03846A169FFF799FD002811DB0E
:100AA0002C48C0430540E5602B463246494638464F
:100AB000FFF778FDA16920F00042B21A1144002826
:100AC000A16103D02046FFF7CFFF4046BDE8F08785
:100AD00070B504460569C06A6168884200D8084656
:100AE000E16821F42011E160C90312D5A84208D0C1
:100AF0002246411B2846FFF7C1FF10B14FF0FF30DF
:100B000070BD0020E562C4E90150E06820F4803047
:100B1000E060002070BD10B50446C06820F02000E1
:100B2000E060A16AA06988420DD02046FFF7D0FF9F
:100B3000E06820F4405040F01000E060A06AA0613E
:100B40002069E062606044F24001E0688843E06050
:100B500010BD000010000200002801D000F03CB8D9
:100B60007047000010B5014602A000F07DF801209A
:100B700010BD000053494752545245443A20526533
:100B80006469726563743A2063616E2774206F70C4
:100B9000656E3A200000000010B5431C02E010F81A
:100BA000011B71B18107FAD14FF0013202C88C1AD2
:100BB0008C4314EAC211F9D0C01A0A0603D0C01E31
:100BC00010BDC01A10BD0A0401D0801E10BD09025C
:100BD000FCD0401E10BD000001491820ABBEFEE74E
:100BE0002600020000210160C0E9011070471020BA
:100BF0007047034640688C46002818BF88423CBFB7
:100C000003464068F8D318681844884207D00CF1AE
:100C1000030020F00700001D411A521A0146081D6A
:100C20000A60FFF707BD10B50146C268900703D000
:100C3000900607D5886A0AE000F03EF801210160BD
:100C4000881E10BD8B69486818440B69C01A91F85A
:100C500048301BB191F84910401A10BD1103FCD562
:100C60000028FADD401E10BD70B505460C460A206E
:100C700000E06D1C00F018F835B128780028F8D194
:100C800002E0641C00F010F814B120780028F8D1BC
:100C9000BDE870400A2000F007B810B500F010F869
:100CA000BDE81040FFF758BF08B569468DF8000051
:100CB0000320ABBE08BD0000004870477001002053
:100CC00010B5012805D0002103A0FFF7CDFF0120BA
:100CD00010BD09A1F8E7000053494752544D454D56
:100CE0003A204F7574206F662068656170206D65CD
:100CF0006D6F7279000000003A2048656170206DC8
:100D0000656D6F727920636F7272757074656400BF
:100D10000029816802D041F0010101E021F00101C8
:100D2000816070470029816802D041F4807101E040
:100D300021F480718160704701460020896849076D
:100D400000D501207047014600208968090700D5B9
:100D50000120704710B542680E4B0C791A400B68A1
:100D600042EA04221343436083680B4A1340D1E9EB
:100D7000024222434C7943EA44031A438260C26A26
:100D8000097C22F47002491EC9B242EA0151C162D3
:100D900010BD0000FFFEF0FFFDF7F1FF70B5072466
:100DA00009290AD9C568A1F10A0606EB4606B4402E
:100DB000A543B3401D43C56007E0056901EB41064B
:100DC000B440A543B3401D4305611F23072A09D240
:100DD000446B521E02EB820293409C4391400C43B1
:100DE000446370BD0D2A09D2046BD21F02EB82024C
:100DF00093409C4391400C43046370BDC46A0D3A18
:100E000002EB820293409C4391400C43C46270BD4C
:100E1000816841F00801816070470029816802D033
:100E200041F4A00101E021F4A001816070478168D4
:100E300041F0040181607047FEE70029016802D09B
:100E400041F0010102E04FF6FE721140016070476F
:100E500001684FF6FE72114001600021016041609F
:100E60008160C1603149314A0839904203D14868F4
:100E700040F00F0006E02D4A1432904204D1486839
:100E800040F0F00048607047284A2832904203D171
:100E9000486840F47060F5E7244A3C32904203D140
:100EA000486840F47040EDE7204A5032904203D148
:100EB000486840F47020E5E71C4A6432904203D150
:100EC000486840F47000DDE7184A7832904203D158
:100ED000486840F07060D5E7154A111F904203D171
:100EE000086840F00F0006E0114A1432904204D125
:100EF000086840F0F000086070470D4A28329042C0
:100F000003D1086840F47060F5E7094A3C3290422A
:100F100003D1086840F47040EDE7054A5032904232
:100F2000EAD1086840F47020E5E7000008000240BC
:100F30000804024030B5036847F6F07293430C6A28
:100F40008A682243D1E904452C4322438C69224319
:100F5000CC6922434C6A22438C6A22431A430260C2
:100F6000CA6842600A6882604968C16030BD7047E3
:100F7000F0B5CA78002502F00F03D20601D58A78B1
:100F800013430A784FF00F0E12F0FF0F4FF00102DB
:100F90001CD004680F8802FA05F63740B74211D119
:100FA0004FEA850C0EFA0CF724EA070703FA0CF453
:100FB0003C43CF78282F02D0482F02D002E0466170
:100FC00000E006616D1C082DE4D304600C88FF2C42
:100FD0001ED944685FF0000606F1080702FA07F51B
:100FE0000F882F40AF420FD14FEA860C0EFA0CF754
:100FF000BC4303FA0CF73C43CF78282F00D145615E
:10100000CF78482F00D10561761C082EE4D34460C8
:10101000F0BDFEE7FEE7704770470000044A002974
:10102000516901D0014300E08143516170470000E4
:1010300000100240044A0029916901D0014300E0F8
:1010400081439161704700000010024030B51F4994
:101050004A6812F00C031E4A03D0042B01D0082B5F
:1010600021D002604A680F231A4C03EA1212A35CD3
:101070000268DA4042604B68072505EA1323E35C07
:1010800022FA03F383604B6805EAD323E35CDA407A
:10109000C2604968032303EA9131231F595CB2FB04
:1010A000F1F1016130BD4A684B6802F470124FF0F3
:1010B000020413F4803F04EB924202D04B689B037E
:1010C00001D5054B00E0024B5A43CAE7001002402D
:1010D00000127A000600002000093D0038B50446E1
:1010E00001210520FFF7A6FF01218803FFF7A2FFDA
:1010F00018208DF803004FF40070ADF800000320B5
:101100000D4D8DF8020069462846FFF731FF042097
:101110008DF803000002ADF8000069462846FFF78D
:1011200027FF2146054C204600F09CF8012120466F
:1011300000F086F838BD000000080140003801408A
:10114000704700000CB5002126480191009102680B
:1011500042F4803202604FF4A063026802F400326D
:101160000092019A521C0192009A12B9019A9A4275
:10117000F3D10268920333D5012100911A490A681C
:1011800042F010020A600A6822F003020A600A684C
:1011900042F002020A604168416041684160416872
:1011A00041F480614160416821F47C1141604168F3
:1011B00041F4E8114160016841F08071016001680B
:1011C0008901FCD5416821F003014160416841F08B
:1011D000020141604168C1F381010229FAD10CBDCD
:1011E00000910CBD0010024000200240704700003A
:1011F0000F4810B5016841F00101016041680D4AD6
:101200001140416001680C4A11400160016821F4FD
:1012100080210160416821F4FE0141604FF41F010B
:101220008160FFF78FFF05494FF00060086010BD37
:10123000001002400000FFF8FFFFF6FE08ED00E09E
:101240000029818902D041F4005101E021F40051CC
:10125000818170470246002012880A4200D0012096
:101260007047000030B50446008A85B00D464CF644
:10127000FF710840E98801432182A1894EF6F310ED
:101280000140A8882A8910436A890A431043A08133
:10129000A08A4FF6FF410840A9890143A182684610
:1012A000FFF7D4FE1948844201D1039800E0029868
:1012B000A189090400EBC00101EB0010296801D5E8
:1012C000490000E08900B0FBF1F06422B0FBF2F1CC
:1012D00009010B096FF018056B4300EB8300A3892C
:1012E0001D044FF0320306D503EBC000B0FBF2F053
:1012F00000F0070005E003EB0010B0FBF2F000F097
:101300000F000843208105B030BD000000380140C7
:10131000C1F3080181807047FEE7000070B5074DFA
:101320000446C1B22846FFF7F3FF40212846FFF7E5
:1013300091FF0028F9D0204670BD00000038014020
:101340001CB547484FF4E131002501608580C58018
:10135000058185810C214181FFF7C0FE01210846EE
:10136000FFF75CFE01214FF40470FFF763FE3D4F71
:101370003846FFF76DFD3A483B4924303B4C012687
:1013800080E8720089150561C0E905518900C161D5
:10139000202101620902C0E9091501463846FFF71C
:1013A000C9FD01213846FFF748FD2D484FF4602163
:1013B0001030056006714671C0E902152A4D0674A9
:1013C00001464C3D2846FFF7C5FC052301220921B3
:1013D0002846FFF7E3FC01212846FFF7A3FC012183
:1013E0002846FFF795FC2846FFF712FD2846FFF731
:1013F000AAFC0028FAD12846FFF719FD2846FFF776
:101400009BFC0028FAD101212846FFF706FDDFF8F2
:10141000609064254FF00A084FF47A7621886420A2
:101420004843020B02EB421080B2B0FBF5F305FB20
:101430001307B0FBF6F3B7FBF8FC06FB1303B3FB93
:10144000F5F7B0FBF6F3CDE9007C0A48FEF7CCFED9
:101450004846CDF80090401E0090FCD1DEE7000029
:1014600024000020080002404C240140000000201D
:1014700000127A00AC14000830313233343536377C
:1014800038394142434445464030580030313233C8
:1014900034353637383961626364656640307800C8
:1014A0003A7474003A7474003A7474000D0A0A0AAB
:1014B0002041524D4A495348552E434F4D204144F7
:1014C00043436F6E76657274656456616C75652012
:1014D000697320307825582C2050726563656E74CE
:1014E00020697320256425252C20566F6C74616754
:1014F000652069732025642E25642564560000004C
:101500002015000800000020240000002801000829
:101510004415000824000020AC0700004401000826
:10152000000002040608000000000102030401029A
:101530000304060708090000000000000000000086
:0415400000000000A7
:04000005080000ED02
:00000001FF
